:020000041000EA
:1000000000B5324B212058609868022188439860DF
:10001000D860186158612E4B002199600421596104
:100020000121F02299502B49196001219960352056
:1000300000F044F80222904214D00621196600F024
:1000400034F8196E01211966002018661A6600F04E
:100050002CF8196E196E196E052000F02FF8012189
:100060000842F9D1002199601B49196000215960AB
:100070001A491B48016001219960EB211966A021F2
:10008000196600F012F800219960164914480160C1
:100090000121996001BC002800D000471248134993
:1000A000086003C880F30888084703B5996A0420EC
:1000B0000142FBD001200142F8D103BD02B5186610
:1000C0001866FFF7F2FF186E186E02BD00000240BE
:1000D000000000180000070000035F00212200005C
:1000E000F4000018222000A00001001008ED00E03C
:1000F000000000000000000000000000070B8FD58A
:1001000000040420C502001091C40010C7020010B2
:10011000C7020010C7020010C7020010C70200107B
:10012000C7020010C7020010C7020010C70200106B
:10013000C7020010C7020010C7020010C70200105B
:100140000DD9001031D90010A9CE0010D1CE001069
:10015000C702001055D90010C70200101DE400109E
:10016000C7020010C7020010C702001041CE0010E5
:1001700075CE0010C7020010C7020010E5CD0010B8
:1001800005CE0010C7020010C7020010C702001001
:10019000C7020010C7020010C7020010C7020010FB
:1001A000D9D10010C7020010C7020010C70200100A
:1001B000C7020010C7020010C7020010C7020010DB
:1001C00072B62C4880F308882B4880F309880220F7
:1001D00080F31488BFF36F8F28482949086004F022
:1001E00067FA0AF0AAFF27482749224A914202DA11
:1001F00008600431FAE725491F4A914202DA086093
:100200000431FAE72249234A234B14469A4204DA7E
:100210000868106004310432F8E719490C601F497E
:100220001F4A204B9A4204DA0868106004310432F5
:10023000F8E700201C491D4A914202DA08600431A7
:10024000FAE70AF07DFF0BF009FA194C194DAC42A0
:1002500003DA216888470434F9E708F035FA164CC8
:10026000164DAC4203DA216888470434F9E7144993
:100270000847000000040420000C042000010010C6
:1002800008ED00E0555555550000042000040420F9
:100290000001001000010010C00100106C020110EC
:1002A00000000020800E0020800E00206C3D002009
:1002B000C0010010C0010010C0010010C0010010FA
:1002C0003DB100107CE700F000F8FEE7F0B54446D1
:1002D0004D4656465F46F0B46B46CB60C3689D46BC
:1002E000F0BCA046A946B246BB46F0BD0BF092F862
:1002F00062B6281CA04700200CF0F8FBFEE70AF0CD
:1003000077FF024A024B1360FEE7C04604ED00E0AF
:10031000000000807047C0469E2110B5C905041C2E
:1003200000F0BAFC002803D1201C00F025FC10BD11
:100330009E21201CC90500F059FA00F01DFC802305
:100340001B069C466044F2E7F0B546464F46D6464B
:100350004502C0B5C30F470098460E1C6D0A3F0EFC
:1003600057D0FF2F21D08023ED00DB041D43002355
:1003700099469A467F3F74027300640A1B0EF60F7B
:10038000002B20D0FF2B4CD080220020E400D20490
:1003900014437F3B4246FF1A4B4672400F2B00D955
:1003A000ACE06F499B00CB589F46002D5BD10823E2
:1003B0009946063B74029A467300FF27640A1B0E97
:1003C000F60F002BDED1002C30D1012342464946E6
:1003D000724019430E2904D86248890041588F465B
:1003E0004246FF200024C0052043D2071043E0BC52
:1003F000BA46B146A846F0BD5346022BF0D0032BB7
:1004000000D1A3E042462C00012B35D1002000246E
:10041000E9E7002D1BD104239946033B00279A46A8
:10042000A9E7002C0CD10223FF3FCFE7200000F00A
:100430003DFC431F9C4076235B421B1A0020A9E72A
:1004400003234A461A4391460320FC33A2E72800BF
:1004500000F02CFC7627431F9D4000237F429946E5
:100460009A463F1A87E70C239946093BFF279A468D
:1004700081E703286CD0320038007F30002825DD6A
:10048000630704D00F232340042B00D0043423013E
:1004900003D53800344B80301C40FE28A1DCA40179
:1004A000640AC0B29FE780240022FF20E4039AE799
:1004B0008023DB031D4201D01C424BD08024E40387
:1004C0002C4364024246FF20640A8CE701231B1A76
:1004D0001B2B9BDC21009E37D940BC400B00611ECA
:1004E0008C412343590704D00F211940042900D01F
:1004F0000433590126D50120002474E76D01600101
:10050000854213D21B230024013F012629006400E9
:100510006D00002901DBA84201D82D1A3443013BAC
:10052000002BF3D16B1E9D412C43A5E71A23012418
:100530002D1AEAE7981E43425841404232000024F7
:10054000C0B250E79B0100205C0A4CE746462C00F5
:100550008023DB031C4364023200FF20640A42E76D
:100560002CEB00106CEB0010FFFFFFF7F0B54F46CF
:100570004646D6464502C0B546000F1C6D0A360EEB
:10058000C40F002E00D1C3E0FF2E77D08023ED00F2
:10059000DB041D43002399469A467F3E7B025B0A9B
:1005A00098467B001B0EFF0F002B77D0FF2B00D14E
:1005B00094E042468021D200C904114388460021BC
:1005C0007F3BF6184B46721C0A2B73DC4B467C4073
:1005D000022B00DCA7E0484601238340A620C00090
:1005E000034267D190208000034200D0ECE0B9388C
:1005F000FF38184200D0DAE041460904090C4346AE
:100600000F00280C2D041B0C2D0C6F4341435D4340
:1006100058436D183B0C5B19994203D9802149025C
:100620008C4660443F0419043F0CC9198D016F1EAC
:10063000BD411B0C890E1B180D439B011D431B0163
:1006400000D4C6E0012369081D400D4310007F302F
:10065000002800DC94E06B0704D00F232B40042B10
:1006600000D004352B0103D5803210005E4B1D40B5
:10067000FE2855DCAB015B0AC0B226E0002D00D09D
:1006800078E008239946063B9A467B025B0A984627
:100690007B00FF261B0EFF0F002B87D14346002B4C
:1006A00056D14A4601331A4391464B460121721CEA
:1006B0000A2B8BDD5346022B32D0032B00D17CE07A
:1006C0005346012BC2D100200023C0051843E40784
:1006D0002043E0BCBA46B146A846F0BD33004246CE
:1006E000FF33002A3FD0032249461143721C89463A
:1006F000FF320A2973DD0F295DD18023DB031D4200
:100700005BD042461A4258D13C00FF201343DCE73D
:10071000002D11D104239946033B00269A463DE75C
:10072000FF200023D1E7013B012B00D964E7022918
:10073000F6D045468A46C3E7280000F0B7FA762689
:10074000431F9D400023764299469A46361A25E774
:10075000404600F0ABFA4246431F9A40361A904694
:100760000021763E2EE749460232114389461E009B
:10077000022127E70C239946093BFF269A460DE7FD
:1007800001231B1A1B2B9EDC9E3229009540D94069
:100790006A1E95410D436B0704D00F232B40042B99
:1007A00000D004356B0116D5012000238DE73C00F5
:1007B00045468A467EE73C0045468023DB032B43C3
:1007C0005B02FF205B0A80E780230024FF20DB031D
:1007D0007BE732003AE7AB0100205B0A75E71E00B9
:1007E00003217C40F7E6C046FFFFFFF7F0B5464621
:1007F0004F46D64643025B0AC0B59C461F00DE004A
:100800004B025A0A904645004A002D0EC40F120EA4
:10081000C90F9B09FF2A26D001204140A81A8C420B
:1008200010D0002800DC8AE1002A48D1002B00D13A
:10083000AEE0421E012800D13FE1FF2800D1ADE02B
:10084000100041E0002800DC86E1002A00D182E0AF
:10085000FF2D00D1A2E08022D20413431B2800DC2C
:1008600083E0013654E02800FF388246002B69D12E
:10087000012041408C4200D1D8E05046002800D1F0
:100880009AE00C00002D00D07DE0FF20002E00D16A
:100890007CE0471E012800D12CE10C00FF2800D18C
:1008A00009E101211B2F07DC2020C01B31008640FD
:1008B000F940701E8641314315005E1A10E0FF2D8D
:1008C0006CD08022D204134301221B2807DC202194
:1008D000091A1A008B40C240591E8B411A43B61A9E
:1008E000730166D5B601B709380000F0DFF90538A5
:1008F0008740854200DD7AE020223B00401B01302A
:10090000121A3E009340C6405A1E934100251E43D2
:10091000730704D00F233340042B00D00436730137
:1009200037D5681CFE2D2ED0914BC0B233409B01B1
:100930005F0AC0053843E4072043E0BCBA46B1462D
:10094000A846F0BD8C4260D0002835D0002D9CD048
:100950000C00C44622E0002B1AD0421E012800D110
:100960009DE0FF281AD0100078E72021091A1A000C
:100970008B40C240591E8B411343F618730118D5A2
:100980000135FF2D6AD1FF200027D2E70C001E00A1
:100990000500F3089C46FF2D00D087E06346002B3E
:1009A000F1D080276346FF031F437F02FF207F0AA9
:1009B000BFE77307AED1ECE7FE206A1C10421AD1E4
:1009C000002D63D1002E00D198E00020002BB0D084
:1009D0008022F71AD204174200D1A8E001249B1B01
:1009E0000C401342A3D0624A013013409FE7604E8F
:1009F0002D1A3E408CE7F71A7A0143D4002F00D01D
:100A000072E700240020002793E7002811D0002D72
:100A100051D1FF20002EBAD0411E01283FD0FF281F
:100A200049D01B294CDD15005E1C71E75146002999
:100A30001BD1FE216A1C11421ED1002D4BD1002E6C
:100A400072D00020002B00D173E7F318DF087F027B
:100A50007F0A5B0100D46CE701206AE70123454A65
:100A60003340760816401E4352E7002DD1D08AE766
:100A7000FE216A1C0A42E2D0FF2A84D0F618150033
:100A8000760845E701249F1B0C402DE7002E3CD142
:100A9000002B45D180270024FF20FF0349E7F618EB
:100AA00002257301DAD4F3089C46012563465F02F0
:100AB0007F0AE8B23DE7C44670E70125F61A0FE762
:100AC00030002025C840691A8E40711E8E410643B1
:100AD0001500F61852E7002EEDD0002B00D160E78C
:100AE0008023DB039C4500D25BE7984500D358E7A1
:100AF000C44656E70C0001259E1BF1E6002B80D072
:100B00000124474600200C4013E7002B00D148E7A2
:100B10008023DB039C4500D243E7984500D340E7A0
:100B20000124C4460C403CE74746002001E7002F63
:100B300002D0BF017F0AFCE600240027F9E6002866
:100B400000D139E7571B3800002D00D19EE68020E8
:100B5000C0040C000643A4E6002889D0511B002DD8
:100B600001D1080056E78020C004064359E7C0467B
:100B7000FFFFFFFBFFFFFF7D41024200C30F490A59
:100B80000020120E7E2A03DD9D2A02DD094A9818F4
:100B90007047802000040143952A07DC9620821AC2
:100BA000D1404842002BF3D10800F1E7963A91403A
:100BB000F7E7C046FFFFFF7F70B5041E0ED000F0C0
:100BC00075F803009E20C01A96280CDC082B2DD047
:100BD000083B9C406402640AC0B201E0002000248B
:100BE000C005204370BD992814DC5A1F9440220090
:100BF00010490A40650709D00F252C40042C05D068
:100C00000432540102D59F200A40C01A9201540AAE
:100C1000C0B2E5E71A0021001B3291400A00511EC4
:100C20008A410521C91ACC401443E0E764029620AA
:100C3000640AD5E7FFFFFFFB844608006146FFE733
:100C40001FB500F0C3F8002801D40021C8421FBD21
:100C500010B500F049F84042013010BD10B500F069
:100C6000B5F8002801DB002010BD012010BDC046F2
:100C700010B500F0ABF8002801DD002010BD012008
:100C800010BDC04610B500F057F8002801DC002068
:100C900010BD012010BDC04610B500F04DF8002871
:100CA00001DA002010BD012010BDC0461C21012327
:100CB0001B04984201D3000C10391B0A984201D33F
:100CC000000A08391B09984201D30009043902A21D
:100CD000105C40187047C046040302020101010184
:100CE000000000000000000070B542004E024C0001
:100CF00045026D0A120EC30F760A240EC90FFF2A91
:100D000010D0FF2C0CD00120A2420AD1B54208D14C
:100D10008B420FD0002A04D12800431E984100E0E6
:100D2000012070BD0120FF2CFBD13543F9D14B4090
:100D30001800F6E70020F4E730B5420044024D0207
:100D4000C30F4800640A120E6D0A000EC90FFF2A75
:100D500017D0FF280AD0002A1BD100280AD1002D65
:100D600024D0002C2ED14800013830BD002D26D1D2
:100D7000002A01D1002CF6D08B4206D15800013850
:100D8000F3E7002C1BD1FF2813D001205B4218434E
:100D9000EBE70028F9D08B42F7D18242F5DCEDDB9E
:100DA000AC42F2D80020AC42DFD2E7E7002CDCD026
:100DB000EBE7002D03D18B42E7D10020D5E70220DD
:100DC0004042D2E78B42EBD0DFE7C04630B542006D
:100DD00044024D02C30F4800640A120E6D0A000E51
:100DE000C90FFF2A18D0FF280DD0002A1CD10028D7
:100DF0000DD1002D27D0002C0BD08B421BD0012011
:100E00005B4218430FE0002D0CD1002A1ED1002CAC
:100E10001CD14800013806E0002C03D1FF28EED198
:100E2000002D16D0022030BD0028E8D08B42E6D13C
:100E30008242E4DC04DBAC42E1D80020AC42F2D2D6
:100E400058000138EFE7002CEDD0D8E78B42D6D11F
:100E5000F6E700208B42E6D0D1E7C04602B47146E7
:100E600049084900095649008E4402BC7047C046F3
:100E700002B4714649084900095C49008E4402BC2D
:100E80007047C04603B47146490840004900095EF6
:100E900049008E4403BC704703B4714649084000C2
:100EA0004900095A49008E4403BC704703B4714697
:100EB000023189088000890008584018864603BC22
:100EC000F746C046414208401C2101231B049842BA
:100ED00001D3000C10391B0A984201D3000A0839CB
:100EE0001B09984201D30009043902A2105C401A80
:100EF0007047C0461B1C1D1D1E1E1E1E1F1F1F1FD0
:100F00001F1F1F1F114B70B51C680500236B002BA2
:100F100003D000221D615A6170BD182000F094F8C2
:100F2000031E20630CD00A4A00210260094A426075
:100F3000094A82600B228281012018615961E8E729
:100F400000224621054B064800F050F848080020D2
:100F50000E33CDAB34126DE6ECDE0500AC010110B2
:100F6000C4010110184B70B51D682C6B002C0ED0FD
:100F700020696169154A164B0DF0FEFC0122002321
:100F800012184B41580040082261636170BD18205F
:100F900000F05AF8041E28630FD00E4B01220360A4
:100FA0000D4B43600D4B83600B2383810023026153
:100FB000436107480A4A064BE6E700225221094BE3
:100FC000094800F013F8C046480800202D7F954CD2
:100FD0002DF451580E33CDAB34126DE6ECDE050026
:100FE0002E7F954CAC010110C401011070B51400A6
:100FF0001A000A4B06001B6884B0D868002C0AD07F
:10100000074B084D0193009133002900029400F032
:101010003BF800F011F8044B1C00F2E748080020F0
:10102000F001011000020110FC010110130010B5C5
:101030000022FFF7DBFFC046062010B500F074FC6D
:1010400001200AF02FFAC04610B5034B01001868C2
:1010500000F082FF10BDC0464808002010B5034BC9
:101060000100186801F000F810BDC04648080020D3
:101070000CB400B583B004AB04CB019300F096F838
:1010800003B008BC02B018470EB400B582B003AB81
:101090000100054804CB0068019300F087F802B016
:1010A00008BC03B01847C04648080020F0B505004A
:1010B0000F2A31D903273E000D430C0003002E40B8
:1010C0002F4234D11500103D2D09AC462F013F1899
:1010D00065685D60A5689D60E568DD602568103421
:1010E0001D601D001033BD42F2D165460F230C2454
:1010F00001352D0149191340451914421AD0043BFA
:101100009B0801339B008C59AC5104369E42FAD1A6
:101110000323AD1989191A40561E002A06D0002350
:10112000CC5C1A00EC5401339642F9D1F0BD0500B5
:10113000561EF4E71A00EFE7936810B5013B936081
:10114000002B04DA9469A34207DB0A2905D013684F
:10115000581C10600800197010BD00F071F9FBE711
:10116000F8B506000F00002B0DD01400D51802E0D2
:101170000134AC4207D03A0030002178FFF7DCFFA1
:10118000431CF5D1F8BD0020FCE7C04610B51400A3
:1011900092680023002A05D0220000F0ABF900225B
:1011A0000300A26000221800626010BDF0B54E4638
:1011B0004546DE465746E0B58146884614001E0087
:1011C0009FB0002803D0036A002B00D11FE14346E3
:1011D0009B891B0700D48FE043461B69002B00D17D
:1011E0008AE0002306AD6B6120336B761033AB765B
:1011F0005346A346874F059603935B461B78002B07
:1012000000D19BE05C4603E063780134002B7DD085
:10121000252BF9D15B46E31A9A465C457BD12378AE
:10122000002B00D18AE0012300225B420692079343
:10123000002200230892099300234332AB54AB658C
:1012400001339B46013406E05A46C01B82401C0015
:1012500029680A432A6005223800217801F0DCFA67
:10126000631C1E000028EFD12A68D10602D5432155
:1012700020306854110702D543212B20685421786F
:101280002A2967D1059B191D1B680591002B00DADF
:1012900098E0EB6061782E2900D172E05E4C032269
:1012A000200001F0B9FA002806D04023001B83403B
:1012B0002A68013613432B603178731C0622574885
:1012C0009B46297601F0A8FA002800D180E0544B13
:1012D000002B67D005AA0092290042464846514B90
:1012E00000E000BF0390039B013327D0039A6B6992
:1012F000944663446B6180E74146484600F08AFFAC
:10130000002800D16DE7012040421CE05B46E31A53
:101310009A465C4512D03B0000264746A0464C4604
:10132000994602E00136B24543D95B463A002000B7
:10133000995DFFF701FF0130F4D1B84643469B8920
:101340005B06E0D468691FB0F0BCBB46B246A94654
:10135000A046F0BD08003038260009289BD8EA686E
:10136000140000E00133A200121919785200141879
:10137000080030380928F5D91E00EC602E2900D06D
:101380008CE771782A292DD1059BB01C1A1D1B688A
:1013900005926B60002B02DA01235B426B60B1782F
:1013A00006007BE70722059B073393430833059329
:1013B0009CE74B466A69A146524444466A61B84676
:1013C0001F002CE75B42EB6002231A432A6061E7AF
:1013D00005AA0092290042464846124B01F060F8E7
:1013E000039080E708000023303801366B6009283D
:1013F00000D953E71A0093009B1871785B001A1804
:101400000800303801360928F5D96A6046E700F04F
:1014100029FCDCE630020110380201103C02011008
:10142000000000006111001010B504001300034A11
:1014300010680A002100FFF7B9FE10BD480800201F
:10144000F8B505000E001400002802D0036A002B36
:1014500041D0A369A360A3891B071BD52369002B77
:1014600018D0FF22F7B2616916402268D31A994258
:101470001FDD0133A1680139A160511C2160177083
:1014800062699A421ED0A389DB0701D50A2E19D0C2
:101490003000F8BD2100280000F0BCFE002817D164
:1014A000FF222369F7B2616916402268D31A994274
:1014B000DFDC2100280000F0E7FC002808D1012330
:1014C0002268D7E72100280000F0DEFC0028DFD0EA
:1014D00001267642DCE700F0C5FBBAE7030010B551
:1014E0000A00034908681900FFF7AAFF10BDC046AB
:1014F00048080020F0B54E46DE4657464546E0B562
:10150000936883B00C0091460090002B5FD00C23B1
:10151000CA5E130763D50B69002B60D04B461F686A
:10152000930723D5A36A00269A46B34B0025984615
:10153000216A002D16D02B00454500D9AE4B320054
:101540000098D047002859DD4B464A469B6836181C
:101550001B1A2D1A9360002B39D0A36A216A9A4670
:10156000002DE8D13E687D680837E2E7D30762D5F1
:101570000023B84600209A4600261F00002E45D0C2
:1015800000284CD03B00B3469E4200D99B462068C1
:101590002269A5686369904203D9ED18AB4500DD67
:1015A000FEE05B4500DDEEE0A56A5246216A009848
:1015B000A847051E22DD01207F1B19D04B464A4655
:1015C0009B68AA445B1B761B9360002BD6D100203E
:1015D00003B0F0BCBB46B246A946A046F0BD210010
:1015E000009800F017FE00280DD10C23E25E95E76D
:1015F0002100009800F048FC0028DFD00C22A35EF8
:1016000040221343A38101204042E1E708224346E0
:1016100094465E68E044002EF8D01B689A4632007B
:101620000A21504601F0F8F8002800D1DBE05346CB
:101630000130C71AA6E7002380219A4689008B460D
:10164000564655462068A36884469846002D5CD0CF
:1016500059460A425DD09A46AB4200D990E09023A9
:10166000DB001A4232D02169431A606901934300BA
:101670001B18D80FC3185810019B824601335B1901
:10168000834201D99A461800520500D497E0010020
:10169000009800F061FC8046031E00D1A6E0019A8C
:1016A0002169FFF703FDA389544A134080221343A5
:1016B000A38143462361019B1A0042449446226061
:1016C0005246A846AA46D31A6261A3605246310028
:1016D000604600F025FD4246A8460025A368206824
:1016E0009B1A5044A36020604B4642469B68464488
:1016F0009B1A4A46936000D169E70C23E25E20689A
:10170000A36884469846002DA2D13E687D680837BC
:101710009AE7226982421BD362699046AA4217D88F
:10172000802328001B069D4200D3354841460DF01A
:10173000EBF84346A26A43439046216A3200009880
:10174000C047002800DC59E780464346ED1ACBE746
:101750009846AB4200D9A8464246310000F0E0FC72
:101760004246A36820689B1A4044A3602060002B77
:10177000EBD12100009800F087FB0028E5D03DE781
:10178000A846AA46A2E75A46514600F0C9FC5A4666
:10179000A3685D469B1AA36023685B4423600AE745
:1017A00051462A0000F0BCFC236821005B19009818
:1017B000236000F069FB002800D1FCE61EE7020070
:1017C000009800F08DFD8046002800D071E7009D54
:1017D0002169280000F048FC8022A3899343743AD1
:1017E0001BB22A600CE7731C1F00CCE6009A0C3376
:1017F00013600C22A35E03E700FCFF7F7FFBFFFF6B
:10180000FFFFFF7FC36B10B50400002B01D0002049
:1018100010BD802100F0A0FBE063002806D002008C
:101820000023803208C09042FCD1F0E70120404202
:10183000EEE7C04670B505000C0016001F2907D85A
:10184000C06B002809D0A40004192068266070BD70
:101850001623036001204042F9E78021280000F0B0
:101860007BFB010003000022E86380310028F1D0F7
:1018700004C38B42FCD1E6E770B505000C001F29BC
:101880001ED8C36B002B0ED08A009B181A68002A42
:1018900009D0012A05D0511C0ED00021200019606A
:1018A0009047002070BD280001F062F8220001007E
:1018B000280001F049F8F5E7162303600120F1E75D
:1018C0001623036001204042ECE7C04670B50500D6
:1018D0000C001F2924D8C36B002B14D0A2009B1826
:1018E0001A68002A09D0511C0BD0012A07D0002108
:1018F000200019609047002070BD0120FCE7032004
:10190000FAE70220F8E7802100F026FB031EE863D7
:1019100006D000210200803002C28242FCD1DDE705
:1019200001204042E8E7C046144B70B504001D6832
:101930001F281DD8EB6B002B0DD082009B181A6856
:10194000002A08D0012A04D0511C0DD000211960B2
:101950009047002070BD280001F00AF82200010025
:10196000280000F0F1FFF5E7162301202B60F1E7D6
:10197000162301202B604042ECE7C04648080020B7
:10198000114B70B504000E001D681F2807D8E86BC6
:10199000002809D0A40004192068266070BD162311
:1019A0002B6001204042F9E78021280000F0D4FAA2
:1019B000010003000022E86380310028F1D004C355
:1019C0009942FCD1E6E7C046480800200C4B10B510
:1019D0001C68E36B002B01D0002010BD802120008B
:1019E00000F0BAFAE063002806D00200002380323B
:1019F00008C09042FCD1EFE701204042EDE7C0462D
:101A000048080020174B70B504001D681F2825D812
:101A1000EB6B002B14D0A2009B181A68002A09D087
:101A2000511C0BD0012A07D00021200019609047DB
:101A3000002070BD0120FCE70320FAE70220F8E750
:101A40008021280000F088FA031EE86306D00021F8
:101A50000200803002C29042FCD1DCE7012040420B
:101A6000E7E7C046480800200020704710B5034A49
:101A70000349044800F0ACFB10BDC04698080020A4
:101A8000891E00104C08002041680B4B10B5040063
:101A9000994201D000F0F8F9A168084B994202D0B0
:101AA000200000F0F1F9E168054B994202D02000D6
:101AB00000F0EAF910BDC046840E0020EC0E0020B4
:101AC000540F002000207047F8B5CE464746344CEE
:101AD000344B354A2000002580B51A6004230822C3
:101AE00000215C3025606560A560656625616561E3
:101AF000A561E36000F0E4F82C4B20009946636296
:101B00002B4B2C4F9846A362CC23E5502A4B2B4EEF
:101B10006367802308220021C430E550E762266312
:101B2000A566E5662567A567E567246200F0C8F845
:101B3000220088236832E2504A460433E25042468B
:101B400020000433E2500433E7500433E6503833C6
:101B5000E5500433E5500433E550194A5C33E55051
:101B6000583BE2500433E5502D300433E550082251
:101B700004330021FF30E55000F0A2F82200F023EA
:101B8000D032E2504A460433E25042460433E25037
:101B90000433E7500433E650C0BCB946B046F8BD44
:101BA000840E0020800E00206D1A00108D28001079
:101BB000B9280010F9280010090001002929001097
:101BC00012000200F8B5244B07001B68002B3BD025
:101BD000224E7368B468013B03D51BE06834013BB7
:101BE00018D30C22A55E002DF8D120001C4B082232
:101BF0000021E36065662560A5606560256165611B
:101C0000A5615C3000F05CF86563A563A564E564DC
:101C10002000F8BD3568002D01D02E00D9E7D6216F
:101C20003800490000F098F9041E10D00423D02297
:101C30000560250043600C300021A060520000F0D8
:101C40003FF834602E00C4E7FFF73EFFC0E70C23E7
:101C500030603B60DCE7C046800E00209808002022
:101C60000100FFFF036A10B5002B00D010BD044B2C
:101C70000362044B1B68002BF8D1FFF725FFF5E743
:101C8000891A0010800E00207047C0467047C04679
:101C900010B50020024A034900F09AFA10BDC04670
:101CA00098080020691A001010B50020024A034964
:101CB00000F08EFA10BDC04698080020C51A00102A
:101CC000F0B50500830749D0541E002A45D0030013
:101CD0000326CAB202E00135013C3ED301332A702B
:101CE0003342F8D1032C30D9FF220A401502AD1837
:101CF0002A04AD180F2C34D92700103F3F093E01AC
:101D0000B4461E001A001036664415605560956092
:101D1000D56010329642F8D101373F01DB190F2709
:101D20000C22274022403C00002A0ED03E1FB6085D
:101D3000B400A4461A001C1D644420C2A242FCD177
:101D400003240136B6009B193C40002C05D0C9B2D3
:101D50001C19197001339C42FBD1F0BD0300140023
:101D6000C0E72700E2E7C046F0B5C64600B50C2242
:101D70008B5E07000C001A073CD44A68002A5CDD21
:101D8000E66A002E32D000223D68216A3A60DA0409
:101D900057D4002201233800B0470200431C65D00D
:101DA0000C21635EE66A216A5B0706D56368D21A76
:101DB000636B002B01D0236CD21A00233800B0478C
:101DC000431C40D00023636023692360A389DB04A4
:101DD0004AD4616B3D60002908D023004433994206
:101DE00002D0380000F040F900236363002080BC7B
:101DF000B846F0BD0E69002EF8D00D680022AD1B6C
:101E00000E609B0700D14A69A260002D04DCEDE75B
:101E100036182D1A002DE9DDA36A320098463800E5
:101E20002B00216AC0470028F2DC4022A38913431B
:101E30001BB20120A3814042D9E70A6C002A9FDC33
:101E4000D4E7626DB0E739680C22A35E1D2916D86D
:101E50000C4ACA40D20712D5002262602269226071
:101E6000DB04B6D50029B4D16065B2E73B68002B2E
:101E700096D01D2B01D0162BD7D13D60B6E740225E
:101E80001343D6E7010040200B6970B505000C0034
:101E9000002B08D0002802D0036A002B0AD00C22A5
:101EA000A35E002B01D1002070BD21002800FFF7A8
:101EB0005BFFF9E7FFF7D6FEF1E7C04670B5041EF9
:101EC00018D00F4B1D680369002B08D0002D02D0DD
:101ED0002B6A002B0AD00C22A35E002B01D100201C
:101EE00070BD21002800FFF73FFFF9E72800FFF74A
:101EF000B9FEF0E7034A0449044800F069F9EFE746
:101F00004808002098080020891E00104C08002076
:101F100070B5104E050033680C00002B15D0210061
:101F200028000BF06DFE431C0CD00323C41C9C4303
:101F3000A04205D0211A28000BF062FE013001D02A
:101F4000200070BD01246442FAE700210BF058FE26
:101F50003060E4E7BC0F0020F8B50323CE464746C7
:101F6000CD1C9D430835060080B50C2D1ED20C25D6
:101F7000A9421DD8300000F0C3FB3A4F7A68002A0E
:101F80001AD0140004E063682200002B14D01C0057
:101F900023685B1BF7D40B2B27D96119256094426A
:101FA0005BD051600B6063684B600DE0002DDFDAA1
:101FB0000C230020336014E029003000FFF7A8FF55
:101FC0000400431C19D00560300000F09BFB20008A
:101FD00007220B30231D9043C21A984201D01B1ACE
:101FE000A350C0BCB946B046F8BD6368944202D065
:101FF0005360E9E743467B60E6E77B689846002B41
:1020000024D0444663689846002BFAD12368002107
:1020100099463000A1440BF0F3FD814516D12368A9
:102020003000ED1A2900FFF773FF01300ED023684E
:102030007A685B1923605368002B02D1DAE71A0033
:102040005B689C42FBD100235360BDE70C2330004A
:10205000336000F057FB0020C3E779600B606368D2
:102060004B60B1E7BC0F002070B50500002915D00A
:102070000C1F2368002B23DB280000F041FB274ABC
:102080001368002B05D0A3420BD921686018834246
:102090002CD028006360146000F034FB70BDA342B4
:1020A00010D81A005B68002BF9D1106811188C4207
:1020B00018D02CD363605460280000F023FBEDE7B8
:1020C000E418D9E711685018A04214D01FD821682D
:1020D00060188342EED118685B6841182160636024
:1020E0005460E9E723681B181360E5E718685B682C
:1020F00041182160CDE7206809185018116083420B
:10210000DAD118685B68411811605360D4E70C237A
:1021100028002B6000F0F6FAC0E7C046C00F002090
:10212000F0B588420AD98B18984207D2531E002A6C
:1021300003D0CA5CC254013BFBD2F0BD05000F2A9C
:102140000AD8561E002AF8D00023CC5C1A00EC54A2
:1021500001339642F9D1F0E703273E000D430C000E
:1021600003002E402F422DD11500103D2D09AC4605
:102170002F013F1825681D6065685D60A5689D603A
:10218000E5681034DD601D001033BD42F2D16546B4
:102190000F230C2401352D01491913404519144210
:1021A00013D0043B9B0801339B008C59AC5104367F
:1021B0009E42FAD103231A40AD198919561E002AEE
:1021C000C2D1BAE70500561EBEE71A00B9E7C046FD
:1021D000F8B54746CE46884680B5814617000026AA
:1021E0007D68BC68013D0DD4A389012B07D90E225F
:1021F000A35E013303D021004846C047064368343C
:10220000013DF1D23F68002FEAD13000C0BCB94691
:10221000B046F8BD314B70B5050018680C000028B9
:1022200002D0026A002A4FD00C22A35E1A071DD5E5
:102230002269002A24D0D90708D50021A16061694C
:1022400000204942A161002A08D070BD00219807F2
:1022500000D461690020A160002AF6D11A06F4D5E5
:1022600040221343A38101204042EEE7DA062ED537
:102270005A0714D4226908210B43A381002ADAD11A
:10228000A02180208900800019408142D3D0210004
:10229000280000F039FA0C22A35E2269CBE7616BBB
:1022A00000290AD022004432914204D02800FFF7CE
:1022B000DBFE0C22A35E00226263242293430022F1
:1022C000626022692260D6E7FFF7CCFCACE7092206
:1022D0002A6040221343A381C5E7C0464808002076
:1022E000F0B5C64607000E00140000B500292DD039
:1022F000002A27D000F01EFB8046844203D8350018
:102300004308A34210D321003800FFF725FE051E25
:102310000AD0220044450BD831002800FEF7C6FE43
:1023200031003800FFF7A0FE280080BCB846F0BDA1
:10233000310042462800FEF7B9FE31003800FFF7B1
:1023400093FEF1E7FFF790FE0025EDE71100FFF7A0
:1023500003FE0500E8E7C046F8B557464E46454639
:10236000DE46E0B51F000A9B924698460A698B68D4
:1023700006000C009A4200DA1A0053461A60432302
:10238000E35C002B02D0514601320A6022689106BC
:1023900061D55346524606201B68023313602268FB
:1023A0001100104208D10020814619308346E168AF
:1023B000A344994247DC11004323E35C5A1E934136
:1023C00089060AD53020E1184331087045215A1C8E
:1023D000615CA218433202331170220039003000D0
:1023E0004332C04701301DD0534606251B68E168C3
:1023F0009C462368A26820692B40042B31D082427E
:1024000039DD00239946121A914400251A3402E05E
:1024100001354D452FDA0123220039003000C04735
:102420000130F5D101204042F0BCBB46B246A9467E
:10243000A046F8BD01239C465346E5681B68E1446D
:10244000ED1A4D4524DD01235A4639003000C047BE
:102450000130EFD1E6E7062111420ED05A1E93411A
:10246000BBE76346C91ACB43DB170B409946824250
:10247000C9DC0029C9DC0020D6E70020534681468C
:10248000193083461B68E168A3449942DBDC92E77C
:1024900043232168E35C5A1E9341890692D49CE74A
:1024A000F0B54E46994643239C4657464546DE4680
:1024B0008C446346E0B587B002930C00097E9046D9
:1024C0000700109A002914D00B00583BDBB2202BD8
:1024D00048D888489B00C3589F46136821681D1D33
:1024E000606915601B680E0602D4490600D5DCE061
:1024F00018600023029D23614B46210000933800A1
:10250000434605AAFFF728FF01301ED02A004146A6
:1025100038002369C847013017D02368E068059E5A
:102520009B071BD5B04219DD19239A460025A2440A
:1025300004E0E0680135831BAB420FDD0123524606
:1025400041463800C8470130F3D10120404207B06E
:10255000F0BCBB46B246A946A046F0BDB042F6DA92
:102560003000F4E72500422301204235E1544323A3
:1025700000222061E254BFE713682168181D106033
:102580000D0602D44D0600D594E01A681600636863
:10259000002A00DA92E0584A93460A2203924BE05E
:1025A0001368206840CB050601D440067FD4136031
:1025B000514B9B466F2900D191E00A23039337E0EA
:1025C00013682500191D11601A6842230120423545
:1025D000E254CCE71368191D11601D680021280022
:1025E000626800F019F9002800D181E0401B6060AA
:1025F000BDE7202321680B432360452178206054E8
:102600003E498B46116840C9180603D4580601D5C7
:102610003604360C1160DA0702D5202213432360FA
:10262000002E03D1202223689343236010230393B9
:1026300043230022E2546368A360002B18DB0421CB
:1026400022688A432260002E12D1029D002B49D1BC
:10265000039B082B1ED0029B5B1B23614CE7452389
:102660005821E154244923688B46CBE72368C4E70B
:10267000039B9A46029D300051460CF04DF95B4693
:102680005B5C013D2B70330006005345F3D2039B86
:10269000082BE0D12368DB07DDD5626823699A4205
:1026A000D9DC3023013D2B70D5E7188021E73604B3
:1026B000360C7CE700269E5F320068E743222D201F
:1026C000A054A360002B02DB0423994321600A235A
:1026D0009A46094B76429B460A230393CAE708238E
:1026E0000393A5E75B4625001B7842352B70AFE7C7
:1026F00060683CE7ACEC0010440201105802011085
:102700007047C0467047C046F0B50C23CD5E06004A
:102710000C0097B0AA0707D5230047332360236135
:102720000123636117B0F0BD0E23C95E00292BDBC6
:102730006A4608F0A8FE002824DB8027FF00390045
:102740003000019DFFF708FC002833D08022A389C8
:1027500020601343A381F0231B021D4080232061CE
:1027600067619B019D42DDD130000E23E15E08F0E0
:1027700096FE0028D6D00322A38993430122134357
:10278000A381CFE70C23E55E0F4B2D06ED171D400F
:102790008023DB009C46654429003000FFF7DCFB0A
:1027A000002807D08022A38920601343A3812061E1
:1027B0006561B7E70C22A35E9A05B3D40322934365
:1027C00002221343A381A7E740FCFFFF70B50C0072
:1027D0001E000E23C95E150096B0002914DB6A4660
:1027E00008F051FE00280FDBF02301991B0219406D
:1027F000084B9C4661444B4259418023DB0000203A
:1028000031602B6016B070BDA38900211B06F4D582
:102810004023F4E700E0FFFF70B5CCB283070DD092
:10282000531E002A0FD0032504E00130284206D0B1
:10283000013B08D30278A242F7D170BD1300032BED
:1028400003D8002B14D10020F7E7FF220A4015021D
:10285000AD182A040B4EAD1803E0043B0430032BE3
:10286000EFD9026808496A40511891433142F4D0C7
:10287000C31802E001309842E5D00278A242F9D1B3
:10288000DBE7C04680808080FFFEFEFE70B50C0056
:102890000E25495F08F0ECFD002803DB636D1B1873
:1028A000636570BDA389024A1340A381F9E7C0465E
:1028B000FFEFFFFF00207047F8B50C001F000C234E
:1028C000C95E05001600CB050AD40A4B3200194038
:1028D0002800A1810E23E15E3B0008F0D0FDF8BD89
:1028E0000E23E15E0022022308F0C7FD0C23E15E07
:1028F000EBE7C046FFEFFFFF70B50C000E25495F08
:1029000008F0BBFD431C07D08023A2895B01134361
:102910001BB26065A38170BDA389024A13401BB23C
:10292000F8E7C046FFEFFFFF10B50E23C95E08F0C1
:10293000A8FD10BD0B1F1B68181F002B00DB704784
:102940000B58C018FBE7C046002370B5074D0400C4
:10295000080011002B6008F0ABFD431C00D070BDD7
:102960002B68002BFBD02360F9E7C046C40F002082
:1029700010B508F0A3FD10BD10B583070AD0030001
:10298000032102E001330B4205D01A78002AF9D165
:10299000181A10BD030019680C4A0D4C8A188A4396
:1029A00022420FD15968094A04338A188A432242C5
:1029B00008D15968054A04338A188A432242F1D063
:1029C00000E001331A78002AFBD1E1E7FFFEFEFEAA
:1029D0008080808030B5032A1AD90B0003439B07FF
:1029E00011D0551E002303E05A1C9D4213D0130042
:1029F000C25CCC5CA242F7D0101B0DE0043A04305C
:102A00000431032A04D904680B689C42F6D0E8E735
:102A1000551E002AE6D1002030BDC04680220300AA
:102A2000802130B5802492000240C005C00FE40030
:102A30000901DD040DD50001002A01D02022104338
:102A4000234201D0402210430B4201D0802318437F
:102A500030BD002A01D002221043234201D00422BB
:102A600010430B42F4D00823F1E7F82210B50C0014
:102A7000411EFF3900235201914202D2FFF7CEFFDF
:102A800003001800A04710BD020003090420002B1A
:102A900001D1180013009A0802D013000230C0B20E
:102AA0005B0801D00130C0B27047C2B20004030F0E
:102AB000062B18D00F21062B0ED80E3300200B400A
:102AC000012B08D80120F02A05D007D80020E723E1
:102AD00093424041C0B270470633EFE7F43A10002A
:102AE00043425841F6E70120E72AF4D9F13A53422C
:102AF0005A41D0B2EFE7032370B50126CC086343F7
:102B0000D2180723350019408D400021EDB2030093
:102B1000CB40545C33405B4263402B405C40545498
:102B200001310329F3D170BD30B5072403230022FE
:102B30000440C008434301251000C9188B5CE340E2
:102B40002B40934001321843C0B2032AF6D130BD66
:102B50000721054B054A1B7812789A4200D170472D
:102B600001330B40F9E7C046392D0020382D0020F5
:102B7000030010B5E7280AD8DF280AD8312800D189
:102B800073E00FD8292866D02A2800D174E01800F5
:102B900010BDE0380728FAD8FEF760F918F9273099
:102BA0003DF9474C392808D0822806D03528EED187
:102BB000374A12789206EAD506E0354A1178890735
:102BC00061D152781207E2D52923E0E7304801218C
:102BD000027814000C400A4245D140780842D6D011
:102BE0002300D206D3D4E323D1E7294A1278510730
:102BF000CDD50023D206CAD4E333C8E72449E22363
:102C00000A785007C3D4487801210400023B0C40E5
:102C10000842E5D0BBE71E4A51788907B7D512783C
:102C20000023D206B3D4E733B1E7194A127811076B
:102C3000F6D4ACE71649E6230A781007A7D44878FB
:102C400002210400023B0C400842A0D12300D2061E
:102C50009DD4E7239BE70E4A1178890615D4527854
:102C6000120700D493E7392391E7094A12785206F4
:102C700000D48CE72A238AE7054A1278520600D44A
:102C800085E7312383E7E02381E735237FE7C046EB
:102C9000B236002030B5244C21784B070DD51422D4
:102CA0000240043A53425A4118230340083B5D4214
:102CB0006B419A4201D00C2358400B070DD51422CA
:102CC0000240143A53425A4118230340183B5D42D4
:102CD0006B419A4201D00C2358406478E3070DD52C
:102CE00011220240013A53425A4118230340083B43
:102CF0005D426B419A4201D009235840A4070DD58B
:102D000011220240113A53425A4118230340183B02
:102D10005C4263419A4201D009235840C90601D55B
:102D20001823984330BDC046B236002070B5FFF777
:102D30001FFFA4230400DB0198424ED2A023DB0135
:102D4000984200D39FE0DF281CD8CC285BD8A72866
:102D50000AD8A42800D97AE0012831D0031F9BB2F9
:102D6000A02B2DD900242BE00300A83B9BB21A2BEB
:102D7000F8D85834534BE4B26400E35A8824E40191
:102D80001C431DE08023DB0198421BD28026B60144
:102D9000B04200D386E0E72812D9431EFF3B013E34
:102DA000FF3E9BB2B342DDD2000AC0B2FFF772FF12
:102DB0000500E0B2FFF7DCFE2D023540284384B267
:102DC000201C70BDC0B2FFF7D3FEF0231B012340CF
:102DD0003D4C18430443A4B2F2E7A523DB0198421B
:102DE0001DD23A4B98423BD8394B98420DD8394BBB
:102DF000984230D80322C4B2A3081440023AA24039
:102E00005B01354C13431C43E5E7032101220140DC
:102E10008A40C3065B0F5B01304C1343F3E7304B32
:102E2000984208D81F202F4B20409C4222D82E4C7D
:102E300000020443C4E72D4BC3189BB21F2B00D9DB
:102E400090E7F82304025B011C40294B98E780239C
:102E5000243CDB01D7E71F230340264C1B028FE7EE
:102E60000321012201408A40C3065B0F5B01224C13
:102E70001343C8E7FFF70EFFF823802400025B012D
:102E80001840A401D5E71F202040FFF703FFE3050A
:102E90001B0F1B0202B2C00601D5120112B2174C61
:102EA0001343B0E7C004C00EFFF7F4FE0500E0B224
:102EB000FFF75EFEF8232D025B011D4005432E4304
:102EC000B4B27DE780F8001000A0FFFF5F52000061
:102ED0003F5200001F520000008DFFFF008CFFFFDB
:102EE000BF5200009F520000F4A0000040ADFFFF61
:102EF000F0A00000F1A00000008AFFFF0090FFFF9B
:102F000000207047002070470122014B1A70704763
:102F1000B42C002010B55200054C1218091A035B9E
:102F2000DB430B5202309042F9D1012010BDC04664
:102F300000E01F1010B50B00041E02D1C80FC00125
:102F400010BDC11742184A4012B29918002B0CDB71
:102F50009B1A58010BF0D8FC20231B1A5BB2D8B285
:102F6000002CEDDA4042C0B2EAE74801D11A0BF07A
:102F7000CBFC6023F1E700001FB5030A01901C3170
:102F8000D8B2114B4900C95CE4234B431B121C33DC
:102F90009A1AD317D2185A40D200821A01AC131CC5
:102FA000120400D500231BB258430012607022881F
:102FB000FF231000A178120A184012020B401B04D4
:102FC0001043184304B010BD04F70010030C84B084
:102FD00001901C31D8B2104B4900C95CE4234B432B
:102FE0001B121C339A1AD317D2185A40D200821AD5
:102FF000131C120400D5002301AA12881BB2FF2162
:10300000434310001B12120A084012020B401B041B
:103010001043184304B0704704F700107FB5040A4A
:103020000190E4B21000E51AFFF784FF8300C01A94
:10303000EDB22D18EDB26C4301AE241274703288DB
:10304000FF231000B178120A184012020B401B0433
:103050001043184304B070BD7FB5040C051CE4B2E6
:103060001000E61AFFF766FF8300C01AFF23F6B2CE
:1030700036181800F6B2744328402D0A1D40240A61
:103080002D021C40034B284324041840204304B065
:1030900070BDC046FFFF00FF7FB5060A019010001B
:1030A00008AA1278F6B29C1AFFF744FF3419E4B26A
:1030B000201AC0B2704301AD04126C702A88FF233D
:1030C0001000A978120A184012020B401B0410438A
:1030D000184304B070BD00007FB5061C040C10003E
:1030E00008AA1578E4B25D1BFFF724FFFF236519DA
:1030F000EDB22D1A1800EDB26C433040360A1E4076
:10310000240A36021C40034B304324041840204359
:1031100004B070BDFFFF00FF84B001AB01901A70D6
:103120001A8899781000FF23120A184012020B40E7
:103130001B041043184304B07047000084B0019092
:103140001C3109484900095C01AB891A19701A88B9
:1031500099781000FF23120A184012020B401B043A
:103160001043184304B0704704F700101FB50B4B11
:103170001C3149005B185B7801AC9B1A01902370ED
:103180002288FF231000A178120A184012020B4077
:103190001B041043184304B010BDC04604F70010D0
:1031A000F0B51C311500114A4B00D3185F7885B07B
:1031B0003E00203E019001ACC0B273B2360602D58B
:1031C0002023DB1B5BB24900525CA178521BD21852
:1031D000801820702288FF231000120A1840120263
:1031E0000B401B041043184305B0F0BD04F700105A
:1031F00084B004AA0190107803225A43521001A906
:10320000801808700A88FF2310008978120A184075
:1032100012020B401B041043184304B0704730B532
:1032200085B0019010001D00FFF784FE01AC40192D
:1032300020702288FF231000A178120A1840120281
:103240000B401B041043184305B030BD30B585B0AA
:103250000190100008AA147801AD1C1BFFF76AFE4C
:10326000E4B2241A2C702A88FF231000A978120ACD
:10327000184012020B401B041043184305B030BD28
:103280007FB5104D1C335B00EE185B5D7678703BAC
:1032900059437F23203E72435118CA171A405218CF
:1032A000D21101AC1218019022702288A17810006E
:1032B0008033120A184012020B401B0410431843BB
:1032C00004B070BD04F700107FB5104D1C335B00D7
:1032D000EE185B5D7678703B59433F23203E724386
:1032E0005118CA171A405218921101AC12180190C5
:1032F00022702288A1781000C033120A18401202EE
:103300000B401B041043184304B070BD04F70010B9
:103310007FB5164D1C335B00EE1876780190203E89
:1033200072435E5D01AC3500703DC0B26BB22D06DC
:1033300002D570239B1B5BB23825EB1A594303233C
:103340008A187F215343DA170A40D218D211801805
:1033500020702288FF231000A178120A1840120260
:103360000B401B041043184304B070BD04F7001059
:1033700030B5104B1C314900CD5C85B0A91A0190C5
:1033800001ACC0B24BB2090601D5521B53B2DAB23E
:10339000182353431B12C01820702288FF231000EB
:1033A000A178120A184012020B401B041043184364
:1033B00005B030BD04F70010C943030CC9B2DBB23D
:1033C0004B43FF210A000240000A0840000210435C
:1033D0001B0A044A0B401B04104084B0184304B07D
:1033E0007047C046FFFF00FFC943C9B284B08908D7
:1033F00001AB0918019019701A8899781000FF2301
:10340000120A184012020B401B041043184304B068
:1034100070471FB501900520434306AA128801A9F1
:10342000D3181A1C9BB2FF2B00D9FF22D3438A78F2
:10343000DBB29B181C1CFF2B00D9FF240A88FF233A
:103440001000120A1840120223401B0410431843B4
:1034500004B010BD30B585B0019008A800881B18D5
:10346000C81709184140D0171218424009B29BB240
:1034700092B20901FF2900DDFF2112B21201FF2AD9
:1034800000DDFF22081C15B209B201ACA94200DD23
:10349000101C1B181A1C9BB2FF2B00D9FF22D34310
:1034A000A278DBB29B18191CFF2B00D9FF212288C0
:1034B000FF231000120A184012020B401B04104395
:1034C000184305B030BD00007FB5050C160008AAF2
:1034D00001901288E8B201ACFF25482B06D8D31A18
:1034E0001A1C9BB2AB4200D92A1C95B2083189B292
:1034F000102905D9330008339BB2102B00D9FF25C2
:103500000321ED430C4BF2170A405B78921992109D
:10351000EDB2D21840192270011CFF2800D9FF21FA
:103520002288FF231000120A184012020B401B04CD
:103530001043184304B070BD7834002084B004AA4E
:1035400012880190D21A131C92B2FF2A00D9FF23CD
:10355000DBB2D94301AA9078C9B24018011CFF28F8
:1035600000D9FF2110781B1813701288FF23100058
:10357000120A184012020B401B041043184304B0F7
:1035800070471FB506AA128801A9D31A1A1C9BB24C
:103590000190FF2B00D9FF22D3438A78DBB29B181E
:1035A0001C1CFF2B00D9FF240A88FF231000120ADD
:1035B0001840120223401B041043184304B010BDEE
:1035C000074B10B51870074B074A1B789B079B0FDA
:1035D000137004F0C7FF0322044B1A7010BDC046DD
:1035E0000C0B0020783400200B0B0020640E002010
:1035F00010B50D4C23789B0714D00123002804D06C
:103600002C33984201D812330340032022789B00C8
:103610000240134300222370044B1A70044B1A78A3
:103620001143197010BDC04678340020640E00208C
:1036300070340020054B10B51878800801302D2813
:1036400000D901200121FFF7D3FF10BD78340020FD
:10365000064B10B5187880080138C0B2002800D198
:103660002D300121FFF7C4FF10BDC0467834002083
:1036700030B5084C2578AD070AD0A1706070111CD8
:10368000322A00D93221044AE17011780B431370B9
:1036900030BDC046783400207034002010B5044B93
:1036A0005878DA78997808300123FFF7E1FF10BDE8
:1036B0007834002010B5054B5878DA7808389978B6
:1036C00080B20123FFF7D4FF10BDC046783400203C
:1036D00010B507488378C2781033191CFF2B00D926
:1036E000FF2101234078C9B2FFF7C2FF10BDC046D9
:1036F0007834002010B507488378C278103B191C35
:10370000002B00DA002101234078C9B2FFF7B0FF97
:1037100010BDC0467834002010B50748C378103378
:103720001A1CFF2B00D9FF22817801234078D2B2E6
:10373000FFF79EFF10BDC0467834002010B5074843
:10374000C378103B1A1C002B00DA00228178012379
:103750004078D2B2FFF78CFF10BDC046783400200D
:10376000064A13791033191CFF2B00D9FF210123BE
:103770001171034A11780B4313707047783400209D
:1037800070340020064A1379103B191C002B00DA14
:10379000002101231171034A11780B431370704704
:1037A0007834002070340020F0B5104C6478002C80
:1037B00019D1162819DD1738032444430C4D2E194E
:1037C00077788F4205D1645D944202D1B4789C42EF
:1037D0000BD00126074C2670032460432C1861701F
:1037E0002A54A37001E01628E6DDF0BDF82C002075
:1037F00048160020DC16002010B5002801D09047A4
:1038000010BD8847FCE70000F823DB01984205D192
:10381000034B1B685A1E93415B4218407047C046D9
:10382000A42C0020002210B5064B074C074808497D
:103830009A6101329C60D86019611C33202AF7D14B
:1038400010BDC046DC300020ED830010298400103C
:10385000C9840010024A034B12881A807047C04680
:103860008E360020AA0B002070B5104C0A21A088CB
:103870000BF092F80E4D0F4B2870E2880A211A7057
:1038800062890D4B0D4D1A70A2890D4B1A70E0899B
:103890000BF082F82870228A0A4B1A70628A0A4B4F
:1038A0001A70A28A094B1A7070BDC0468E3600206D
:1038B000AE0B0020AF0B0020F60A0020AC0B00205E
:1038C000F50A0020AD0B0020F40A0020F30A0020C6
:1038D0000622084B42431B784B439B1899B2802326
:1038E0009B0099429B41044A1940044B8918196076
:1038F0007047C0462C2A0020201200201C120020F5
:103900000200032070B50A4B9C78DE78651C0540E8
:103910000020AE420AD07F300240C9011143E418B2
:1039200021711A789D7001321A707E3870BDC046C0
:10393000A42B0020074B8000002900D1064B1B5808
:1039400000205A1C05D0D02212065068D84001230E
:1039500018407047280B0020300B00200022074B36
:103960001A802023064AD179002901D19171117260
:10397000013B9BB20C32002BF5D1704792340020F2
:103980000C350020F0B50E4C0E4B25781A78032626
:103990002B000D499A420FD05F007F5A87420CD10D
:1039A0000C214143094A521801219171AB4203D1C4
:1039B00003225B1813402370F0BD01333340E9E765
:1039C00095340020943400208A3400200C350020E7
:1039D0000279030000200A420AD19A780130002AB5
:1039E00006D01B7A11401B0703D54B1E9941C8B264
:1039F00070470F231000120918400B4009090B43B0
:103A00001043C01A43425841C0B2F1E7B5234343C3
:103A100098B2002B07DA803B1BB2D817C0B2C0188F
:103A2000001240B27047803000040016FAE7000030
:103A300010B5184B1A78184B1B89D1070CD5174AAB
:103A4000127853439B109BB27F20834203D87E3869
:103A5000002B00D0D8B210BD910704D50F4A1278C0
:103A600053435B10EFE7520703D50C4A12785343D8
:103A7000E9E70B4A10780028E6D00A4A1178074A8D
:103A8000127853438842DED258430AF03DFF83B296
:103A9000DAE7C046AC2D00208E360020F60A002062
:103AA000AE2D0020F50A002010B5154B1A78012321
:103AB0001A4207D0134B1B789B080120002B0ED015
:103AC000D8B20CE0910703D50E4B1B785B08F4E7E6
:103AD000520705D50B4B1B787F208342EDD910BDD3
:103AE000094A10780028EBD0084B1978054B1B7851
:103AF0008842F1D258430AF007FF83B2ECE7C04690
:103B0000AC2D0020F40A0020AD2D0020F30A002087
:103B10000300CD3810B5122810D8FDF7A9F90A1006
:103B2000141A32323232323232321E23282E3C42C2
:103B30004600FFF77DFF1F4B4042D87010BDFFF7D6
:103B400077FF1C4BF9E7FFF773FF1A4B4042987061
:103B5000F4E7FFF76DFF174BF9E7FFF7A5FF154BEC
:103B60001871EBE7FFF7A0FF124B4042F8E7FFF7B1
:103B70009BFF104B40425871E0E7FFF795FF0D4B5C
:103B8000F9E70122D13B9A400A4913000A0049781B
:103B90000B435370D2E70123074A11780B4313708C
:103BA000CCE7054A02231178F8E7034A0423117889
:103BB000F4E7C046AF2D0020AC2D002030B5042125
:103BC000032502240522334B5D571C5759569A563C
:103BD000CD2814D1002D01DA0022DA70D9789A7834
:103BE0000A4351B2002A01D12B4A11701A795B792C
:103BF00013435AB2002B01D1284B1A7030BDCE2886
:103C000002D1002DE8DCE9E7CF2804D1002CE5DA69
:103C100000229A70E2E7D02802D1002CF8DCDDE720
:103C2000D92804D10029D9DD00221A71D6E7DA2873
:103C300002D10029D2DAF7E7DB2804D1002ACDDA55
:103C400000225A71CAE7DC2802D1002AF8DCC5E755
:103C5000D1380E28C2D8FDF701F90808080808086D
:103C60000808C1C1C1C10E141800012181405A7851
:103C70008A435A70B2E7012009490A7882430A70E0
:103C8000ACE7074902200A78F8E7054904200A78DA
:103C9000F4E7C046AF2D0020AE2D0020AD2D002052
:103CA000AC2D002010B5002A00D0904710BD0000B8
:103CB000054B10B51B78181E05D0044B1B68181E49
:103CC00001D01B68984710BDF82C00202C2D002037
:103CD00007B50A4A0300118881420DD01080084AB6
:103CE0001268002A08D0032101A8017069464B71AF
:103CF0001B0A8B711369984707BDC046D21100207B
:103D00002C2D002007B50A4A0300118881420DD0EE
:103D10001080084A1268002A08D0042101A8017006
:103D200069464B711B0A8B711369984707BDC046E2
:103D3000D01100202C2D002070B5164B1B78002BC5
:103D400010D0154B1B787F2B0CD9C308EF2808D84F
:103D5000124A0721D218012301408B4091780B436E
:103D6000937070BD0E49012200230C0052428D78E1
:103D7000A842F6D0561C02D1002D00D11A00013302
:103D8000DDB201315BB2062DF1D1531CE9D0A4188C
:103D9000A070E6E7600E0020B2360020A8110020D7
:103DA000C8110020222310B50400184206D00020BC
:103DB0000621FFF78DFD154808F0A0F911231C42DC
:103DC00006D001200621FFF783FD114808F096F97F
:103DD00044231C4206D002200621FFF779FD0D483E
:103DE00008F08CF9772322009A4307D0032006219C
:103DF000FFF76EFD084808F081F910BD002CFCD1DA
:103E000020000621FFF764FD0448F4E775ED00107B
:103E100030ED001032ED001085ED001034ED001093
:103E200010B5054B1A78002A05D000201870034BF6
:103E30001880FFF7B7FF10BD8234002080340020C7
:103E400010B5030000890A00002803D159791888A9
:103E500008F006FB10BD000070B50024074D6B880C
:103E6000A34208D008F01EFB054B1B88C01A6B88C4
:103E700080B298426441200070BDC0468E3600205A
:103E80008034002070B51D4A1D4B14781B781D4DE1
:103E90001C432B78002B25D01B4B5B88002B05D0B7
:103EA000FFF7DAFF002801D0FFF7BAFF174B2D7894
:103EB0001B78002B03D0164B1B787F2B1AD80622B9
:103EC000144B00219A18D2B21878002801D0013181
:103ED000C9B20133D8B29042F6D1002901D0FFF720
:103EE0009FFF2C4320000C4B1A780C4B90431B78FF
:103EF000184370BD1E220A4BE3E7C04683340020FE
:103F000085340020823400208E360020600E002090
:103F1000B2360020CA110020C52D0020C42D00207B
:103F2000AA11002010B5094B1C7820420CD0844304
:103F300000201C70844202D008F0B4FA80B2044B16
:103F400018802000FFF72EFF10BDC04682340020ED
:103F500080340020094B70B55B7804005B070BD5FB
:103F6000074D2B78834207D008F09CFA054B2C7044
:103F700018802000FFF716FF70BDC046B236002043
:103F80008234002080340020064B10B51B78002BB3
:103F900002D008F087FA10BD08F084FA024B1B68C3
:103FA0001818F8E7F82C0020FC2C002010B508F0B9
:103FB00079FA83B20A488278C1780A4301D0094A63
:103FC0001380027941790A4301D0074A1380074BD5
:103FD0001B68002B03D00222DB680270984710BDDB
:103FE000AF2D0020B82B0020B62B00202C2D002058
:103FF0000300080011005A8810B58A4204D8596895
:10400000FDF754F8002010BD01204042FBE70000FE
:1040100013B50800032A24D90623134A11785278CD
:10402000CC070B40E40F234308240C402343102407
:104030000C40234320240C40234340240C40C90956
:10404000C90123430B43D1079207C90DD20F0B437C
:104050005202134301A904220193FDF727F800201F
:1040600016BD01204042FBE7B2360020802210B589
:10407000064C002120009200FDF722FE0122044B95
:1040800052421C60034B1A8010BDC0462012002013
:104090001C120020181200200123834070B5044D2B
:1040A0002C781C43E4B2FFF7E1FF2C7070BDC046D2
:1040B0008D360020094B10B55B785B070AD5084B9D
:1040C000C20011431970FFF7E7FF08F0EBF9054B49
:1040D000188010BDFFF7E0FFFBE7C046B2360020B6
:1040E00086340020883400200123834070B5034DBE
:1040F0002C789C43FFF7BAFF2C7070BD8D360020E2
:1041000070B50C4C23781A00824310002270050011
:104110000722154010420BD1984209D0064B5B781C
:104120005B0705D5C008FFF7DFFF044B25701D8036
:1041300070BDC04686340020B2360020883400208E
:10414000012370B51D00854028001D008D40084CDE
:1041500029002678934035000143C8B29D43314081
:10416000884201D11E43F5B2FFF780FF257070BD74
:104170008D360020F8B51E0006AB04001D88002A0D
:104180000ED00C2007006743134BFF5C974200D210
:104190003A0060431B185888104BC018FCF786FF84
:1041A00020000AF059F8071E13D0002D11D00C2161
:1041B0000A006243084B9A1810792A00A84200D2DC
:1041C000020061435B18D988044B3000C918FCF722
:1041D0006DFF3800F8BDC046F40D0020C82C00204B
:1041E000F0B5150085B00C000A9A1900039028005C
:1041F000FEF7F0FB2768060008F054F9C01B63289F
:1042000001D8002E0CD00A9B29009AB200230398F3
:104210000093FFF7AFFF002803D008F043F92060B8
:10422000012005B0F0BD000007B502000420034BDB
:10423000009003490238FFF7D3FF0EBDCD2C0020BC
:10424000BC2C002010B586B002AC08222000084922
:10425000FCF72CFF1022074B07491B78072023721D
:104260000092064B2200FFF7BBFF06B010BDC04610
:1042700078340020AA2C0020AC2C0020E02C002058
:1042800030B50E4D85B02C6808F00CF9001B0124E8
:1042900063280FD9FFF778FE002302300390042231
:1042A0000620009303A9FFF765FF041E02D008F063
:1042B000F9F82860200005B030BDC046B02C0020C1
:1042C00030B50F24012385B06C4423700B4B0C4D8B
:1042D0001B78092B0BD900232B700023012221000E
:1042E00008200093FFF746FF2070287002E02B782B
:1042F000002BF2D0207805B030BDC046A82C00209D
:10430000A92C002007B500236A46D3716B46012211
:10431000D91D08F039F86B46D8790EBD37B50D00B8
:104320000400FFF7EFFFA84206D06B460122D91D1B
:1043300020000D7007F094FF37BD70B51D000528F3
:1043400014D8072912D8062A10D80E2470234C43FB
:1043500043435200A418E4182000290A2830FFF72C
:10436000DDFF2000E9B22930FFF7D8FF70BDF8B5B6
:1043700016001D00052817D8032915D801270401A8
:104380003800B2235040B840890064189B00E418FC
:104390002018290AFFF7C2FF0320002E00D03800A2
:1043A000E9B22018FFF7BAFFF8BD000070B580250C
:1043B000044C6D01200000210134FFF7AFFFAC4237
:1043C000F8D170BD0C07000010B5FF21041E00D00D
:1043D0006F392420FFF7A2FFFF21002C00D0D53930
:1043E0002520FFF79BFFFF21002C00D0F839262065
:1043F000FFF794FF10BD000070B50024CA239B0096
:10440000E5182800FFF77EFF054B195D814202D0B9
:104410002800FFF783FF0134242CEFD170BDC04684
:104420008E36002010B54388934207D81A004068A2
:10443000FCF73CFEFFF7E0FF002010BD01204042EA
:10444000FBE7000070B50024CA239B00E018FFF7CB
:1044500059FF084B18550134242CF5D10024064D82
:104460002B69002B00D0984701341435152CF7D157
:1044700070BDC0468E36002050F30010030070B5AA
:104480000020052B16D8072914D8062A12D80E2486
:104490004C435200A41870225343E41820002830E3
:1044A000FFF730FF050220002930FFF72BFFADB2E8
:1044B000284380B270BDF8B5040015000020052C1B
:1044C00019D8032917D801273800B2235040B84023
:1044D0008900240164189B00E4182018FFF712FFDC
:1044E0000602B6B20320002D00D038002018FFF7D6
:1044F00009FF304380B2F8BD10B52420FFF702FF5A
:10450000902801D0002010BD2520FFF7FBFE2A28AF
:10451000F8D10438FFF7F6FE073843425841F2E776
:1045200010B52720FFF7EEFE10BD07B500236A4641
:10453000D3806B460222991D07F026FF6B46D88870
:104540000EBD37B50D000400FFF7EFFFA84206D0FF
:104550006B460222991D20000D8007F081FE37BDB9
:104560000A4910B54A785307DB0F83420CD0012368
:10457000034004209B0082431A434A700988FFF7D6
:10458000E0FF0220FFF7BCFD10BDC046B2360020A0
:10459000A022F0B5124E002185B052003000FDF788
:1045A0008FFBC0220F4C002120005200FDF788FB3A
:1045B0000D4D01AF280026600A22390007F0E4FE05
:1045C000300008223900FCF771FD3B890A35A380D1
:1045D000064B0A360C349D42EBD105B0F0BDC04607
:1045E000221400200C3500208C040000CC050000B3
:1045F000F0B51027244C254E85B001AD0A222900C4
:10460000300007F0C1FE20003A0000210830FDF71D
:1046100057FB09222B882380AB79A370AB88E3700A
:10462000EB7923712B7A63716B88E380AA566B7ADE
:10463000002A01DB164A62610122134200D0227275
:104640000222134202D0217A0A4322720422134228
:1046500002D0217A0A4322720822134202D0217A20
:104660000A4322723B4202D0227A3A43227220222B
:10467000134202D0237A1A432272064B0A361834A8
:104680009E42BAD105B0F0BDC82D0020CC05000077
:10469000201400200C07000010B5034807F096FE18
:1046A0000022024B1A7010BD7834002070340020B4
:1046B0007047000013B5030401AA10801B0E080008
:1046C000F02B0AD01178072B08D8062905D8072423
:1046D0006343054A5918FEF70EFA13BD0433DBB2E3
:1046E000012BFAD8014AF6E7972D0020942D0020DF
:1046F00013B5030401AA10801B0E0020F02B0AD072
:104700001478072B08D8062C05D8072253430649EE
:104710001819FEF709FA16BD0433DBB20020012B8D
:10472000F9D820000149F4E7972D0020942D0020AE
:1047300070B51D4B1B78002B1ED01C4B1B787F2B9C
:104740001AD9FFF79FFB1A4C1A4D607020222900DE
:104750002000FEF73FF900280DD02022210028007C
:10476000FCF7A4FC144B1B68002B04D006229B68AA
:1047700022702000984770BDFFF784FB0F4C104D4E
:104780002070082229002000FEF724F90028F2D02A
:10479000082221002800FCF789FC074B1B68002B2E
:1047A000E9D05B68E5E7C046600E0020B236002025
:1047B000A81100200A2D00202C2D0020C811002057
:1047C000302D002010B5002805D0034B1A78104377
:1047D0001870FFF7ADFF10BD8534002010B500281C
:1047E00005D0034A137883431370FFF7A1FF10BD70
:1047F0008534002010B500240D4B1C7006F080FCA1
:104800002000FFF765FA2000FFF77CFA094B1C70C7
:10481000FFF78EFF062221000748FDF751FA074BEC
:104820001C70074B1C70074B1C70FFF7BFFB10BDC3
:104830008334002085340020AF2D0020AE2D0020D1
:10484000AD2D0020AC2D002013B5032A38D9042249
:1048500001A8FCF72BFCFFF7CDFF0120019A1A4BB2
:104860005108140001408140044021439408044051
:10487000A4002143D4080440E40021431409044067
:104880002401214354090440640121439409044054
:10489000A4012143D4090440E4012143140A044043
:1048A000520A024024025202214311431A88033063
:1048B000920A920211431980FFF743FE002016BDB1
:1048C00001204042FBE7C046B2360020AF2208205C
:1048D000164B10B51A80164A14215A800A221881E4
:1048E000588200209A80D9805A818918DA811E3234
:1048F0009A820A32DA82963299811A833231C33A25
:104900009A83D8831982588319840333DA77FFF79F
:1049100073FDFFF76FFF8021064BC900042019804B
:10492000FFF70FFEFFF78EFD10BDC0468E3600204C
:1049300088130000B2360020F0B5384B8DB01A68ED
:104940000024019201221A6070256543344B002730
:10495000ED180FE0E3B200937300F2B2EB5AF9B234
:10496000E0B20136FFF7E9FC072EF3D101370E352F
:10497000082F01D00026EDE700262A4B2501ED186F
:10498000F7B22B88012239000098FFF7F0FC0136BE
:104990006B88002239000098FFF7E9FC0435042EEB
:1049A000EED10134062CCFD1FFF790FF0023D324A2
:1049B00009930A9309ADC8332B81A40020000A2271
:1049C000290007F04DFC184B0A349C42F6D10A220C
:1049D000002106A8FDF774F920000A2206A907F0B5
:1049E0003FFC124B0A349C42F6D10922002103A855
:1049F000FDF766F9012302AA5B4213810833537362
:104A000020000A2203A907F02BFC094B0A349C4220
:104A1000F6D1024B019A1A600DB0F0BDA42C002013
:104A200006EE0010A6F000108C040000CC0500007B
:104A30000C07000010B50020FFF7C6FC002127205E
:104A4000FFF76CFCFFF778FFFFF7B0FC0120FFF7E2
:104A5000BBFC10BD024B1A78104318707047C0465B
:104A60008334002010B5041E28D0031FDBB2A02B16
:104A700025D8294B1B78002B14D0284B1A780023FB
:104A80007F2A0FD9264BC2089B1807229978012349
:104A9000024093400B420CD0200006F005FBFFF7CC
:104AA00047FE06E01F4AD15CA142F5D00133062B38
:104AB000F9D12000FFF740F9FFF73AFE10BD0300DF
:104AC0002033DBB2072B07D807230340012098408F
:104AD000C0B2FFF7BFFFEFE703005B33DBB2022B8F
:104AE00004D8243CA0B2FFF7F3F8E7E703005833FB
:104AF000DBB21A2B05D80C4A5B00985AFFF702F973
:104B0000DCE703003333DBB2122BD7D8FFF700F812
:104B1000FFF74CFAD2E7C046600E0020B236002004
:104B2000A8110020CA11002080F800100300E03B0B
:104B300010B50400072B02D90549002800D105490A
:104B40002000FDF792FFE0B2FFF78CFF10BDC046DA
:104B5000C5470010594B001010B5002803D0FFF7CF
:104B600079FFFFF7E5FD10BD024A13788343137008
:104B70007047C0468334002010B5002807D0031FBB
:104B8000DBB2A02B04D806F08FFAFFF7D1FD10BDE1
:104B900003002033DBB2072B07D807230340012093
:104BA0009840C0B2FFF7E0FFEFE703005B33DBB2F2
:104BB000022B03D80020FFF78BF8E8E703005833F7
:104BC000DBB21A2B03D80020FFF79CF8DFE70300C5
:104BD0003333DBB2122BDAD8FEF7F0FFFFF7E6F93A
:104BE000D5E7000010B50400C0B2FFF7C5FF2300F1
:104BF000E03B072B02D90449002C00D103492000D7
:104C0000FDF733FF10BDC046DD470010114C00100A
:104C100010B5002803D0FFF7A7FFFFF789FD10BDEF
:104C200010B5040002698169FFF73CF8074BE17891
:104C30001A788A431A702079FFF796FFFFF778FDFC
:104C4000062200212000FDF73BF810BD853400202E
:104C5000427910B50400930711D402231343437122
:104C60000C4BC27819780A431A700079FFF7F2FEEC
:104C7000FFF75EFD2000E268A169FFF713F800224C
:104C8000054B1A806379DB0702D42000FFF7C8FFC9
:104C900010BDC046853400205C340020002213B5CE
:104CA000164B01AC1B682180934208D121786478AF
:104CB0001A00F02C05D1F02901D1114B1A881000EF
:104CC00016BD072C09D80629F9D80528F7D80A00F7
:104CD0002100FFF7D3FB0200F1E7FD2C07D10329E8
:104CE000EDD80528EBD80122FFF7E5FBF3E7FC2C14
:104CF000E5D10329E3D80528E1D8F5E7042D002004
:104D0000002D0020F0B505240127104A104B127821
:104D10001B7885B001AE1A4330800092009B23417E
:104D20003B4205D1013CF9D20025280005B0F0BD79
:104D3000328803AB1A80E5B203992800FFF7AEFF73
:104D4000FDF7F4FF80B20128ECD0EEE78D360020AD
:104D50008C3600201FB501AC20800198FFF7D2FFF0
:104D6000228803AB1A800399FFF798FFFDF7DEFF57
:104D700004B010BD0279030010B5101E06D01889CA
:104D8000002804D0FDF7D2FFFDF78FFE10BD188874
:104D9000FFF7E0FFF8E70000044A054B0220D15C72
:104DA000002901D10138D0547047C046DC180020DA
:104DB00004100000044A054B0220D15C002902D0F7
:104DC00000210138D1547047DC1800200410000085
:104DD00070B58025044C6D012A0000212000FCF7ED
:104DE0006FFF024B635170BDDC18002008100000FB
:104DF00010B5EFF3108372B6044C236009F0B4FDD4
:104E0000236883F31088012010BDC04620180020BD
:104E1000F0B58DB0FFF7ECFF0024A04266D0FFF79D
:104E2000BBFF0990EFF3108372B68022FF20314D53
:104E300012012B60304B40031900089309F0A4FDC8
:104E40002B6883F3108880252C482D496D01089B21
:104E50000F001B5D122243401E001B02079300231C
:104E600030000693002309F087FDF30E7A011A4300
:104E7000730101920093009A019B80185941801997
:104E80007941730EFA011A43F30103920293029AD5
:104E9000039B80185941330E3A021A43330205929C
:104EA0000493049A059B80185941069A079B013484
:104EB00080185941AC42CAD10A900B91EFF310838C
:104EC00072B60C4C04220F480AA9236009F05CFD5D
:104ED000236883F31088099B012B01D1FFF76AFF38
:104EE00080230224084A08995B01CA5020000DB0B3
:104EF000F0BDC04620180020DC18002025232284A5
:104F0000E49CF2CB00F01F000810000080218022FA
:104F1000054B49015B58012010B59201934201D322
:104F2000FFF776FF10BDC046DC18002073B5802463
:104F30006A460C4D6401911D2B590880EFF31082D5
:104F400072B6094E3260FF2252039818012209F00E
:104F50001BFD336883F310882B5902332B51FFF765
:104F6000D5FF76BDDC180020201800207FB5274A29
:104F7000030CDBB2D45C050AEDB222002300C6B2FA
:104F8000002D29D00620FF21704309F0BDFC5523D8
:104F90005B4243437600F31803265E43FF21F6B2DB
:104FA00033008E1B4A1B6B4375431B122D12CB1A09
:104FB000491B62436343614312121B120912D2B2AE
:104FC000DBB2C9B206281BD8FBF752FF0406131147
:104FD000161A040023000C00FF2120000B4008409B
:104FE0001B020A4012041843104304B070BD210094
:104FF0001C0013000A00EFE70B0021001400F9E782
:10500000210014001A000B00E6E7C046DEF1001094
:10501000074B02005B78002B05D00020162393423B
:105020004041C0B270472D2181425B41D8B2F9E7BF
:10503000F82C0020010030B5C0B2012916D9F723A1
:10504000FF225B01994202D84A090832D2B20124F8
:10505000A018401005004543ADB2C3B2A94206D224
:10506000013BDAB29442F3D9013CE0B230BDFF28F3
:10507000FCD00133DCB2F5E71FB51C0001904BB248
:10508000080601D549424BB23820C01A80B292B20C
:1050900052434043801880B2FFF7CCFF03224243C3
:1050A00001ABA4181C701A8899781000FF23120A0B
:1050B000184012020B401B041043184304B010BDEB
:1050C000054A064B11884B4305495B189BB2180AE9
:1050D000C018C0B2138070470E0B002005080000F6
:1050E0001936000040230100020010B51940184293
:1050F00001D0C243D2B20F234C1EA14113409206ED
:105100005B18920F084952005218517812784B439D
:105110001B119B1840B2DBB2002801DA5B42DBB204
:10512000803BD8B210BDC046D6F100107FB50E004E
:10513000041C01901000FFF7D5FF1C36114B7600C0
:10514000F35C01ADC018C0B20200803AE4B253B2C1
:10515000120603D580235B421B1A5BB20C225B0054
:10516000DBB253431B12E4182C702A88FF23100073
:10517000A978120A184012020B401B04104318436E
:1051800004B070BD04F7001010B5FEF70DFB10BDA4
:10519000F8B505000E001700002420003B00320087
:1051A00029000134FFF7F0FF2E2CF6D1F8BD0000E6
:1051B0000A235843C0B203000A331A1CDBB282B080
:1051C0002E2B00D92E220B49D3B2497800290BD1BE
:1051D000021C172800D21722D0B2FF221340104021
:1051E0001B02184302B07047172B00D91722D3B205
:1051F000F3E7C046F82C0020F0B5C34B97B01A78FF
:10520000C24F01230390824207D13B78C04A9B07DB
:1052100012789B0F9B1A5A1E9341BE4CA3707B7948
:1052200062789A4205D00022110010006370FFF7E7
:10523000AFFF039B2D2B38D81800FBF72DFE2E0057
:105240004A007500B800EA001C01600179017B0189
:105250007F0181018501870189018B018D018F010A
:1052600091019301950197019B019D019F01CF0140
:10527000FE01470249024B02950273031804A5047C
:10528000640569056B0578057B057D057F0581054E
:1052900083058505870589058B05A378002B04D038
:1052A000002211001000FFF773FF0020994B1A78BD
:1052B00001321A7000280AD10221974A11709B7896
:1052C000002B04D1039B002B01D10333137017B0C3
:1052D000F0BD2078FFF76CFF14AB18800322791C17
:1052E0000604C5B215A8FBF7E1FE1598FFF73EFED0
:1052F00002040302120E1B0E360EC7B20192029375
:10530000EBB29E4203D83000FFF782FECEE7834B1C
:1053100062785B5D1A4205D03A002800029B019931
:10532000FFF732FF0135EBE72078FFF741FF030479
:10533000764F14AA1B0E10800193BA78FB787E7802
:1053400015AD2E706A70AB70C4B21598FFF70EFEE3
:1053500002040302C1B2120E1B0E059106920293C3
:105360003B79F6182E701598FFF700FE012607040A
:105370000502C3B204933F0E2D0E019AE3B29A4286
:1053800001D81000C0E7654B624A1B5D52781A4293
:1053900007D0334207D02B003900049A2000FFF7D2
:1053A000F3FE0134E9E7029B059A0699F6E72078B7
:1053B000FFF7FEFE14AB18803B7904049B08BD7810
:1053C000FE78240E0193C7B2FBB29C4201D82000A4
:1053D0009AE7524A4F4BD25D5B78134217D050493F
:1053E0007B00CB5C01991B094B43484915AA4978BE
:1053F00055705B18137096701598FFF7B7FD010490
:105400000302C2B2090E38001B0EFFF7BDFE0137C2
:10541000DAE72078FFF7CCFE14AB1880BB780504E0
:105420000193FE783F792D0EBF08C4B2E3B29D42CE
:1054300001D8280068E7394A364B125D5B78134281
:1054400017D038496300CB5C30497B4349785B1106
:1054500015AA5B181370019B967053701598FFF78F
:1054600085FD01040302C2B2090E20001B0EFFF7E6
:105470008BFE0134DAE72078FFF79AFE030414AAC2
:105480001B0E108001937B78C4B20293264B3879AF
:105490001B68C0089BB258430012C0B2FFF722FE3F
:1054A0000200803ABE78FD7853B2120603D58023FD
:1054B0005B421B1A5BB25B00DBB25D43029915AA2B
:1054C0002D125670957011701598FFF74FFD060458
:1054D0000702C5B2360E3F0E019AE3B29A4200D8D7
:1054E0004FE70E4A0B4B125D5B78134205D03B0031
:1054F0002A0031002000FFF747FE0134ECE70B489B
:1055000006F022FCD2E6C0460C0B002078340020C6
:105510000B0B0020080B0020640E002098F70010F1
:105520003DF700103CF700109C170020792F001069
:10553000D348E5E7D34806F069FAB7E6D248FAE778
:10554000D24806F0CDFAB1E6D148FAE7D148D7E71C
:10555000D148D5E7D148D3E7D148D1E7D148F0E7E2
:10556000D148E8E7D148E6E7D148EAE7D14806F074
:105570002DFB9BE6D048FAE7D048F8E72078FFF704
:1055800017FE15AB1880A37805042D0EC0B2002BB2
:105590001BD13A791032131CFF2A00D9FF23C84AC5
:1055A0009BB210680A2180B25843001280B209F001
:1055B000B3F989B2002900D03BE7FFF781FD2E2324
:1055C0005843001206F060FB33E70400AC4200DBF6
:1055D0002FE7200006F058FB0134F7E72078FFF7AB
:1055E000E7FD15AB1880A37805042D0EC0B2002B83
:1055F0001AD13A791032131CFF2A00D9FF239AB22C
:10560000AF4B1B689BB25343AE4A1B125343AE4A87
:105610009BB2934200D90CE7FFF752FD2E2358436B
:10562000001206F069FB04E70400AC4200DB00E76F
:10563000200006F061FB0134F7E72078FFF7B8FDA2
:1056400013AB032218800504C3B2791C14A801937C
:10565000FBF72CFD9A4B38791B68C0089BB2584366
:105660000012C0B2FFF73EFD0200803A7E782D0E98
:1056700053B2120603D580235B421B1A5BB20C2285
:105680005B00DBB253431B12F61814320CAB9B18B1
:105690001E701498FFF76AFC15AE03043070000208
:1056A0001B0E000E019F7370B070FBB29D4200D8BC
:1056B000BFE6864B6278DB5D1A4205D03800B378CE
:1056C00032787178FFF760FD0137EEE7804817E721
:1056D000804815E72078FFF76BFD14AB06041880AF
:1056E000330E0193764B1E687B4B1B689E4235D967
:1056F000FFF7E6FC2E254543744B2D12EB5C6278D8
:105700001A422BD0FFF7DCFC800729D4FFF7D8FC26
:105710000400FFF7D5FCC00100127F30FB78C0B257
:1057200015AA1470937050701598FFF71FFC0104B0
:105730000302C2B2090E1B0E2800FFF725FD3B79BC
:10574000654C1033191CFF2B00D9FF21FA2089B2B8
:105750000909400009F0D8F8801920600198D3E5C4
:10576000002318001C00DBE7554B00201B68029348
:105770005A4B029A1B68934200D997E5A37883425B
:105780003CD1574E03253078FFF712FDC4B2654374
:1057900003041B0E0193534B14AA1080ED18019AB9
:1057A000E3B29A425DD81000FFF732FC021ED5D159
:1057B000019B5D1E002B01D003326A43494C4A49CC
:1057C0002000FCF7ADFCFFF77BFC800700D48FE0E6
:1057D000032300226B431A55E3185A709A703B79E1
:1057E0003E4C1033191CFF2B00D9FF2189B23F48D2
:1057F000090909F089F8029BC018AEE700220026CB
:1058000011001000FFF7C4FC364DFFF759FC0223CE
:10581000184208D000232B706B70AB700136033533
:105820002E2EF2D1ADE7FFF74BFC15AC2070FFF741
:1058300047FCC00100127F306070FB78A370032327
:10584000734315980193FFF791FB264C019B019A36
:10585000185503040002A4181B0E000E6370A070FC
:10586000DCE71A4B72781B5D1A4205D02000AB783A
:105870002A786978FFF788FC033501348FE7C04642
:10588000CD2F00101D30001059300010993000103D
:10589000D9300010193100103D3100106D31001069
:1058A000A1310010F1310010795000101F320010AA
:1058B0004D32001081320010C93200101133001037
:1058C0009C170020CDCCFFFF3333000098F7001069
:1058D0002D51001071330010E416002074170020C1
:1058E000080B0020E8160020EB160020B80B000083
:1058F000FFF7E6FB15AE3070FFF7E2FBC0010012C8
:105900007F307070FB78B370032315985D43FFF709
:105910002DFB28550304000264191B0E000E637052
:10592000A0705CE7A378002B04D0002211001000C7
:10593000FFF72EFC2078FFF73BFC03041B0E0B93B4
:10594000D24B14AA1B6810800893D14B089A1B688D
:105950009A4200D889E0791C032215A8FBF7A6FB20
:105960001598FFF703FB030213A91B0E8B70DBB224
:105970000793C84B0204120E0193C74B4A7008707C
:10598000D2B2C1B2C54F099106920A930026019C7A
:10599000029700E0012623781D1E0493059304D08E
:1059A000099B079D0493069B0593B85DBC4ABD4BBC
:1059B000825C5B78134204D02B00059A0499FFF7B0
:1059C000E3FB029BB64A9879B64B825C5B78134244
:1059D00004D02B00059A0499FFF7D6FB6378237057
:1059E000029B0134013B0293002ED3D0019B9B7894
:1059F0001C001D001E1E02D0079C099D069EB87843
:105A0000A74AA84B825C5B78134204D02300320083
:105A10002900FFF7B9FB3879A14AA24B825C5B7879
:105A2000134204D0230032002900FFF7ADFBFFF73B
:105A300047FB0323184043425841019B07379870A6
:105A4000033301930A9BBB42A0D1974B904C1B7927
:105A50001033191CFF2B00D9FF2189B29348090983
:105A600008F052FF089BC01820600B984CE4207887
:105A7000FFF79EFB13AA030410801B0EC2B205920F
:105A80000493A378002B09D0002211001000FFF727
:105A90007FFB382200218648FCF712F92378002B7F
:105AA00010D1844C258806F0FDFC1823401B80B2E1
:105AB00083429B41804A5B421370182802D906F04A
:105AC000F1FC2080002402942600794FE719734BE3
:105AD000059A9D5DAA4248D8049AAA4245D9714ABE
